:020000040800F2
:10000000300F00205502000821730008DB3E000875
:100010001D730008D1210008757C00080000000055
:10002000000000000000000000000000277300082E
:10003000FF22000800000000257300082973000853
:100040006F0200086F0200086F0200086F020008CC
:100050006F0200086F0200086F0200086F020008BC
:100060006F0200086F0200086F0200086F020008AC
:10007000D52100086F0200086F0200086F02000817
:100080006F0200086F0200086F0200086F0200088C
:100090006F0200086F0200086F0200086F0200087C
:1000A0006F0200086F0200086F0200086F0200086C
:1000B0006F0200086F0200086F0200086F0200085C
:1000C0006F0200086F0200086F0200086F0200084C
:1000D0006F020008157C00086F020008657C0008AC
:1000E0006F0200086F0200086F0200086F0200082C
:1000F0006F0200086F0200086F0200086F0200081C
:100100006F0200086F0200086F0200086F0200080B
:100110006F0200086F0200086F0200086F020008FB
:100120006F0200086F020008E52100086F02000856
:100130006F0200086F0200086F0200086F020008DB
:100140006F0200086F0200086F0200086F020008CB
:100150006F0200086F0200086F0200086F020008BB
:100160006F0200086F0200086F0200086F020008AB
:100170006F0200086F0200086F0200080000000014
:100180006F0200086F02000800F002F800F052F859
:100190000AA090E8000C82448344AAF10107DA45E2
:1001A00001D100F047F8AFF2090EBAE80F0013F0E2
:1001B000010F18BFFB1A43F00103184720F5000098
:1001C00040F50000103A24BF78C878C1FAD8520729
:1001D00024BF30C830C144BF04680C6070470000C1
:1001E0000023002400250026103A28BF78C1FBD840
:1001F000520728BF30C148BF0B60704766290AF01C
:100200006185642900F0D480002070471FB50AF092
:100210004CFD00F037FD04000020002109F076FEBF
:10022000401C60600020002109F05AFEE0601FBD04
:1002300010B510BD00F052FE1146FFF7E7FF08F0C1
:10024000D3FD01F0F5F803B4FFF7F2FF03BC01F0B2
:1002500039F900000948804709480047FEE7FEE7F2
:10026000FEE7FEE7FEE7FEE7FEE7FEE7FEE7FEE766
:1002700004480549054A064B70470000E57300082D
:100280008901000830090020300F0020300B0020C9
:10029000300B002053EA020C00F069802DE9F04B8E
:1002A0004FF00006002B1FBFB3FA83F503FA05F4E5
:1002B00024FA05F65E4012BF1643B2FA82F502FA3E
:1002C00005F4C5F120051EBF22FA05FC44EA0C0422
:1002D000203556EA044C4FEA144418BF641C4FF012
:1002E00000084FF00009904271EB030C39D300294C
:1002F00019BFB1FA81F701FA07F6B0FA80F700FAF0
:1003000007F6C7F120071EBF20FA07FC46EA0C06D5
:100310002037B6FBF4FCA7EB0507103F07F01F0BD7
:10032000CBF120060CFA0BFB2CFA06F644BFB346C1
:100330000026202FA4BF5E464FF0000B5BEA060CA0
:1003400008BF4FF0010B19EB0B09ABFB027C48EB2C
:100350000608C01B06FB02CC0BFB03CC71EB0C01A7
:10036000C1E70B46024641464846BDE8F08B13B54F
:100370004FF000004FF00001AFF30080BDE81C40DB
:10038000704700000FB41CB5084B06AA7B446946B1
:100390000090059800F0D9FB04460020694600F063
:1003A000E7FB20461CBC5DF814FB0000E1070000E1
:1003B0002DE9F0410646002410687529314616A53E
:1003C00010D0AFF30080002802DA404213A507E006
:1003D00031688A0701D512A502E0490704D511A5A5
:1003E000012401E0AFF3008000210A2206F1240776
:1003F00009E0B0FBF2FCB0FBF2F302FB1C00303072
:1004000078541846491C0028F3D123462A46304622
:10041000BDE8F04100F02BB9000000002D00000005
:100420002B000000200000002DE9F0474FF0000AEB
:1004300089460446C0F820A02046E1688847002885
:1004400076D0252806D0D4E901219047206A401CA7
:100450002062F1E7E168204600258847C4F81CA027
:1004600006460027C4F818A02A2E09D0304608F006
:1004700082FA38B304EB8708303EC8F8186019E0F8
:1004800059F8041B204604EB87029161E168884714
:10049000012F064618D1E069002820DA25F0200552
:1004A0001DE0D8F8180000EB800006EB4000303863
:1004B000C8F818002046E1688847064608F05BFA4D
:1004C0000028EED1012F0AD02E2E08D12046E16857
:1004D00088477F1C0646022F45F02005C4DBA06933
:1004E000002803DA404245F00105A061E80701D089
:1004F00025F01005B6B1A6F14100192802D8203622
:1005000045F400654A463146204625604D46FFF7D2
:1005100075FE58B1012806D0ED1D25F0070000F149
:10052000080989E704E005F1040985E730468AE710
:10053000206ABDE8F087032A40F2308010F0030CF7
:1005400000F0158011F8013BBCF1020F624498BF26
:1005500011F801CB00F8013B38BF11F8013BA2F1C3
:10056000040298BF00F801CB38BF00F8013B11F03E
:10057000030300F05583083AC0F0088051F8043BAB
:10058000083A51F804CBA0E80810F5E7121D5CBF4B
:1005900051F8043B40F8043BAFF30080D20724BF7E
:1005A00011F8013B11F801CB48BF11F8012B24BF12
:1005B00000F8013B00F801CB48BF00F8012B704761
:1005C0004FF000020429C0F0128010F0030C00F07C
:1005D0001B80CCF1040CBCF1020F18BF00F8012BFA
:1005E000A8BF20F8022BA1EB0C0100F00DB85FEAC8
:1005F000C17C24BF00F8012B00F8012B48BF00F894
:10060000012B70474FF0000200B513469446964602
:10061000203922BFA0E80C50A0E80C50B1F1200115
:10062000BFF4F7AF090728BFA0E80C5048BF0CC0C3
:100630005DF804EB890028BF40F8042B08BF704721
:1006400048BF20F8022B11F0804F18BF00F8012B93
:10065000704770477047704710B500F017FB00688F
:1006600010BD10B5044600F011FB046010BD2DE96B
:10067000F0470D4699469246044600F12408016869
:10068000880604D5E06921F01001216000E0012016
:10069000A84201DD471B00E00027A1697A1902EB9F
:1006A0000900081AA0612078C00602D42046AFF3E2
:1006B0000080002608E0D4E901211AF806009047DE
:1006C000206A401C761C20624E45F4DB2078C00670
:1006D0000AD52046AFF3008006E0D4E9012130209E
:1006E0009047206A401C2062381EA7F10107F4DC05
:1006F00007E0D4E9012118F805009047206A401C62
:100700002062281EA5F10105F3DC2046AFF300802E
:100710002078000602D50220BDE8F0870120FBE723
:1007200070472DE9FF4F0C461E464FF0FF378BB048
:10073000D2E90001DDF860800A908A46C1F30A55CB
:1007400005B93D46002108464FF00000BAF1000F00
:1007500000F4400005DA00EB80004FF4400101EAAC
:1007600050004FEA9059B9F1010F00DDB9460A98DF
:1007700050EA4A000ED044F61050A5F2FF3545432A
:100780002F14B8F1000F1ED07542291E1EDDC9F1CD
:1007900000021CE0B8F1010F4FF0000001D0302141
:1007A00003E0F24305E02154401CB042FBDB30463D
:1007B0000022002121540B99C1F80880C1E90020D2
:1007C0000FB0BDE8F08FBD1B6D1CDEE74A4600DAB6
:1007D000694206A800F00CFB06AB93E8070003ABE8
:1007E00083E8070050460A9901F0BEF88DE807003B
:1007F000A0F500501F3800900398002D0ADD42F24A
:100800001F014A460844002303A90390684601F0EB
:1008100069FB09E0A0F500504A461F38002303A9F0
:100820000390684601F088FB8DE807000004000C87
:1008300003D04FF0FF30410800E01046B8F1000F40
:1008400003D00022009215461EE0751E05D400F06C
:1008500021FA303262556D1EF9D5B34601220843A4
:1008600002D000227F1C04E02078302801D1002231
:100870007F1E002A099784D01DE0112D07DA00F0B1
:1008800009FA303262556D1C50EA0102F5D1084375
:1008900002D00098C8B10EE00021681E05E0235C7C
:1008A000625C63542254401E491C8142F7DBAB4614
:1008B000A81B401E0990002004F80B000B98099A11
:1008C000C0F80880C0E9002B7AE711264FF0000835
:1008D00057E72DE9F04F88460446D21D22F0070164
:1008E00091B0D1E90001CDE90A0107F0C5F902464E
:1008F0000B98C00F01D02D2007E02068810701D59B
:100900002B2002E0202101EAC000032A099001D037
:10091000072A05DB03464146204600F009FA0BE1B1
:100920002078800601D5E06900E00620B8F1650F67
:10093000814606D0B8F1660F18D0B8F1670F70D1B4
:1009400031E00020B9F1110F009001DB112301E02B
:1009500009F101030AAA01A90CA8FFF7E2FEDDE9EB
:100960000C70002609F10105834647E001204B4643
:1009700000904FF000470AAA01A90CA8FFF7D1FE8A
:10098000DDE90DB00C995D46002610B909F10100B2
:100990000D18B9EB050003D4C0F1FF3609F10105CC
:1009A000A5EB09002BE0B9F1010F01DA4FF00109C5
:1009B0000020B9F1110F0090484601DD112300E03D
:1009C00003460AAA01A90CA8FFF7ABFEDDE90C70EB
:1009D0004D4600268346207800070AD4AB4500DA4E
:1009E0005D4601A8012D04DD411911F8011C3029D3
:1009F00007D04F4502DA17F1040F04DA01208246CE
:100A00000FE06D1EEEE7002F02DCED1B3E4403E01D
:100A1000781CA84200DD7D1CB81B00F1010A4FF0D4
:100A200000472078000703D4AA4501DB4FF0FF3AC6
:100A30000021B7F1004F0DF143088DF8431024D089
:100A400002202B23002F01DA7F422D230A21021ED0
:100A5000A0F1010000DC5FB197FBF1FC97FBF1F224
:100A600001FB1C7C17460CF1300C08F801CDEEE7B9
:100A7000A8F1010003702188090501D5452100E096
:100A80006521A0F1010800F8011C09980FA9A1EB4C
:100A90000807FF1D00B10120411901EBEA70A169AF
:100AA0003844081A401EA0612078C00602D42046AF
:100AB000AFF30080099828B1D4E901219047206A5A
:100AC000401C20622078C00622D52046AFF300806B
:100AD0001EE0002E04DBB34502DD01A8805D00E0CE
:100AE0003020D4E901219047206A401C2062761C06
:100AF000AAF101005FEA000A0AD100F0C3F8C06859
:100B00000168405CD4E901219047206A401C2062C2
:100B1000281EA5F10105DCDC07E0D4E9012118F865
:100B2000010B9047206A401C2062381EA7F1010784
:100B3000F3DC2046AFF30080032011B041E6000053
:100B400001694A1C02610878704700B58FB0CDE991
:100B500001310021059105497944CDE90310114681
:100B60006846FFF761FC0FB000BD0000E5FFFFFF26
:100B70000A6802F8010B0A60704700000FB40023F6
:100B800000B589B00CA900910B99CB60214B7B4437
:100B90000693214B7B44079304236FF00042CDE979
:100BA00001321E4A7A446B460892024600200AF03F
:100BB000EBF809B05DF814FB70B506464FF0FF3056
:100BC00015460C46324686B00091CDE901016946D2
:100BD0000020049004A8FFF7D1FF024604982118D2
:100BE00025B108B1084600E0204628600498002896
:100BF0000DD0002A02DD0098884208D03246081B3A
:100C000069460094CDE9010404A8FFF7B7FF06B0D8
:100C100070BD00001F0200003702000077010000D5
:100C200010B5203AC0F00B80B1E81850203AA0E887
:100C30001850B1E81850A0E81850BFF4F5AF5FEABB
:100C4000027C24BFB1E81850A0E8185044BF18C96E
:100C500018C0BDE810405FEA827C24BF51F8043B15
:100C600040F8043B08BF7047D20728BF31F8023B69
:100C700048BF11F8012B28BF20F8023B48BF00F8FD
:100C8000012B704700487047F0080020004870476B
:100C9000D008002030B5B0F10A024FEA900E71F191
:100CA00000034EEA817EB0EB0E0061EB91014FEA4A
:100CB000101E4EEA017E10EB0E0041EB11114FEABF
:100CC000102E4EEA016E10EB0E0041EB11214FEA9F
:100CD000104E4EEA014E10EB0E0041EB1141401850
:100CE00041F100014FEAD00040EA41704FEAD101E2
:100CF00010EB80054FEA810444EA907444EB010450
:100D00006D1944EB0404521BA3414FF0000348BF8C
:100D10000A3200D530BD401C41F1000130BD10B594
:100D2000044600F001F90068005D00F0010010BD0C
:100D30002DE9F0411F46044603260168072A01F405
:100D4000006004DB08B116A505E016A503E008B1B4
:100D500015A500E015A521F010002060A069C01EB7
:100D6000A0610FB1401EA0612046AFF300804FB1DB
:100D7000D4E9012138469047206A401C2062C01CFB
:100D8000206206E0206AFAE7D4E9012115F8010B98
:100D90009047761EF8D22046AFF30080BDE8F08180
:100DA0004E414E006E616E00494E4600696E66000F
:100DB000426842B1016811F8013B23B1521EC0E9FB
:100DC0000012184670470121C160881E70474268B2
:100DD0005AB1C368016843B983688B4205D0491E84
:100DE000521CC0E90012002070474FF0FF307047DE
:100DF0002DE9F047814616468AB0354878440DC83B
:100E00008DE80D0032487844801C03AC0DC884E89E
:100E10000D0041F69B300844372190FBF1F290FB26
:100E2000F1F5A5F1800501FB12041B3C02D56442DB
:100E3000012000E00020DFF898A080460027FA4457
:100E4000AAF1BE0A0EE0E0070AD03246684607EB78
:100E5000470101230AEB810101F06EF88DE80700DC
:100E600064107F1C002CEED1194F7F44AE3F19E077
:100E7000E80715D007EB04100DF1180A90E80E00F2
:100E80008AE80E00C068F04201D1981908903246F5
:100E9000012306A903A801F04FF803AB83E807007C
:100EA0006D10641C002DE3D14FF0010332466946FA
:100EB000B8F1000F03A802D001F014F801E001F02E
:100EC0003BF8C9E90001C9F808200AB0BDE8F0877D
:100ED000C4E8000000487047D00800207546FFF7BE
:100EE000F9FFAE4605006946534620F007008546E7
:100EF00018B020B5FFF7BCF9BDE820404FF0000660
:100F00004FF000074FF000084FF0000B21F00701F1
:100F1000AC46ACE8C009ACE8C009ACE8C009ACE834
:100F2000C0098D467047000010B5FFF7ABFE001DED
:100F300010BD00BFD98F00002DE9FF4F06468BB0D2
:100F40000878FF2806D0491C2D2805D000244FF032
:100F5000000908E000200CE00124F8E709EB890310
:100F6000491C00EB43090878FF28F7D114B1C9F1F7
:100F700000008146107800252C46AA4629462D28D7
:100F800001D02B2804D1521C2D2813D000208246DA
:100F90008B461078FF280FD04FF0000C0A21521C0E
:100FA000A5FB017804FB018105FB0C11C5194BEB76
:100FB0000104EEE70120EAE7002108464FF00000B7
:100FC000BAF1000F02D000EB80004008C0F3815757
:100FD000012F01DD4FF0FF370E9955EA040009EBB0
:100FE00001080BD04FF0020918F5FA7F16DA4FEA24
:100FF000CA70002F706008DD012007E04FEACA7058
:10100000C6E900B00FB0BDE8F08F00203060FFF7F8
:101010003DFEC0F800901821084616E0B8F5FA7FAA
:1010200018DD002F02DAF748784401E0F6487844EA
:10103000D0E90010C6E9001040EACA707060FFF7FE
:1010400025FEC0F80090142108460FB0BDE8F04F0F
:1010500009F035BE002108464FF00000B8F100014C
:10106000099002DAC7F1000200E03A4601DAC8F15D
:10107000000106A8FFF7BCFE06AB93E8070003AB30
:1010800083E8070044F23E005BEA04010090584602
:1010900004D144F21E012C465D460091210C090446
:1010A000014306D10099240444EA15442D04103963
:1010B000009104F07F41014306D10099240244EAE3
:1010C00015642D020839009104F07041014306D1E6
:1010D0000099240144EA15742D01091F009104F0C0
:1010E0004041014306D10099A40044EA9574AD0043
:1010F000891E009104F00041084304D100986D1945
:101100006441401E00904FF001033A466846B8F132
:10111000000FCDE9014503A902DD00F022FF01E047
:1011200000F0F5FEBAF1000F04460D4601D084F040
:101130000044002108464FF00000099940F2FF7773
:10114000484010F00C0F07D124F00040284303D092
:10115000C4F30A50B84212D1FFF798FDC0F80090CE
:10116000C4F30A50B8420AD1A8487844D0E9001024
:10117000C6E9001004F000410843706042E7C6E988
:1011800000543FE72DE9FF4F1F464FF0000A4FF094
:10119000FF38454691B0D7E90146CDF83CA0FFF7AE
:1011A00071FDC0680168405C1090B96912986D1CAF
:1011B0008847396A814688470028F6D1B9F1FF3F50
:1011C0000AD0002E24F4D06411DDB9F12B0F08D021
:1011D000B9F12D0F0BD102E0404615B013E744F4EE
:1011E0008064B96912986D1C8847761E8146600537
:1011F00004A901D52D2000E02B20002E01F1010BC8
:101200000DF130088DF810003FDDB9F1690F08D0FD
:10121000B9F1490F05D0B9F16E0F02D0B9F14E0FF7
:101220001CD13B4601A8009580E85002DDE912126E
:101230006FF0020009F0ACFDC11CCED10EE0B9691F
:1012400012986D1C884781461398761E44F40074EA
:1012500005600F98401C002E0F9016DDB9F1300F7D
:10126000EDD0B9F1780F02D0B9F1580F0DD10F9828
:1012700001280AD13B46CDE90054DDE91212001FD6
:10128000029609F083FDC11CA7D1109989453ED172
:1012900044F0800406E01399681CAAF1010A44F4A2
:1012A00000740860B9696D1C1298761E8847302852
:1012B0008146F0D02BE01099894505D1200603D452
:1012C000761E44F0800418E0484607F054FB08B34B
:1012D000761E0DF123018B4544F4007408D2A9F168
:1012E00030000BF8010B200607D5AAF1010003E03E
:1012F000200602D40AF101008246A00502D5139906
:10130000681C0860B96912986D1C88478146002ED8
:10131000D1DC53E0002E51DDB9F1650F02D0B9F1F7
:10132000450F4BD1A00549D5B9696D1C1298761EA1
:1013300024F440748847002E81460CDD2B2804D00D
:10134000B9F12D0F07D144F48074B96912986D1C5E
:101350008847761E8146E00501D52D2100E02B212E
:1013600008F8011BCDF8008021E0761E0DF139014F
:10137000884544F400740CD2A9F1300010F0FF004D
:1013800088F8000002D10099884509D908F10108C0
:1013900006E0E00501D51E4801E042F20F708246EA
:1013A000B96912986D1C8847814613980560002E14
:1013B00004DD484607F0DFFA0028D6D1F969129813
:1013C0008847FF2053468BF8000088F80000002073
:1013D0000A900B9004AA0CA90AA8FFF7ADFDA0057E
:1013E00002D46FF00100F8E614F0240F12D0E007E9
:1013F0001CD13868DDE90A12031D3B600068C0E9B2
:10140000001213E0D8E60000CAE600008EE50000F6
:10141000F1D8FFFF0AA9684607F09AFAE00705D15C
:101420003868009A011D3960006802602846D4E6D9
:1014300010B50446AFF300802046BDE81040FEF72B
:1014400002BF00004FF0013C50F8042B51F8043B60
:101450009A4221D1A2EB0C03934313EACC1317D188
:1014600050F8042B51F8043B9A4215D1A2EB0C031F
:10147000934313EACC130BD150F8042B51F8043BDF
:101480009A4209D1A2EB0C03934313EACC13DBD0AD
:101490004FF00000704700BFD01A01BAB1FA81F1D5
:1014A00001F0180122FA01F0CB40C1F12001DBB2BA
:1014B000C0B2C01A2CFA01F3D11A914311EAC31138
:1014C000E6D1704701491820ABBEFEE726000200B6
:1014D0002DE9FF4F1F464FF03C0987B04FF0004207
:1014E000DDE9141001F10108DDF858A002EA4050CE
:1014F0000390002005908346054604460490B96990
:10150000461E08988847AAF1010A0290BAF1000F16
:101510003BDD02982E2815D0102100F017FA002884
:101520002EDB4FF0010B0599014317D0B9F1000FE5
:101530000BDB4A46C11700F0F6F905430C43A9F14D
:10154000040905E0012004900BE008B145F0010515
:1015500001200590049820B9361D02E0049800B1DE
:10156000361FB969089808F101088847BBF1000FD8
:10157000AAF1010A0290C9D00999C1F80080C5E713
:101580000298702808D0502806D0F9690898884732
:10159000BBF1000F14D04FE0002002900120BBF1FE
:1015A000000F049009D0B969089808F1010888472C
:1015B000AAF10109B9F1000F07DCF9690898884719
:1015C0006FF001000BB0BDE8F08F2B2804D02D2860
:1015D0000CD14FF0FF300490B969089808F1010868
:1015E0008847A9F10109B9F1000FE6DD411CE4D0FB
:1015F0000A2100F0ABF90028DFDB029908F10108AD
:1016000001EB810100EB41000290B969089888471D
:101610000A2100F09BF9099AA9F10109B9F1000F1B
:10162000C2F8008001DD0028E7DAF96908988847E8
:101630000499029800FB016655EA040004D004F006
:101640004041090002D006E0039898E0A40044EA73
:101650009574AD00B61E04F00041080002D16D196A
:101660006441761E159810F0240F03D04FF00B093B
:101670005C4803E04FF028096FF07D008246564534
:1016800007DAAAEB06018944B9F1410F01DD4FF0F9
:10169000410901200021A9F1010200F044F90246AC
:1016A00028400B462140084301D0012100E00021E1
:1016B000501E029143F1FF3128402140084301D0E0
:1016C000012000E000200299834651EA0B014FD02F
:1016D000002108464FF00000039900F4400039B1A2
:1016E00000EB80004FF4400100EBD07001EA600095
:1016F0008015012802DD4FF0FF3000E013D0401CC0
:1017000036D0029860B3BBF1000F0CD14A460120DD
:10171000002100F008F928402140084301D00120B1
:1017200000E00020E0B101204A46002100F0FBF873
:10173000034640190A4661412D1A8C4111D3B9F173
:10174000400F09DD159810F0240F02D0AAF13406DD
:1017500003E0AAF1170600E0761C00254FF00044D4
:1017600006E05B1E42F1FF3220EA030521EA020493
:10177000CAF10100B04206DA1B4903980843019000
:10178000002000900EE0039AC4F3D321E80A0A4334
:10179000164940EA44500A433146CDE90002684602
:1017A00007F0DFF8159810F0240F0BD01598C0073C
:1017B00015D13868DDE90012031D3B600068C0E9FF
:1017C00000120CE002A8694607F0C2F81598C0079D
:1017D00005D13868029A011D3960006802604046F0
:1017E000F0E6000002FCFFFF0000F07F0000F03F89
:1017F0002DE9FF4F92461D4685B04FF00041DDE9CF
:10180000124BDDE914727F1E01EA4B50414940F052
:10181000FF4940EA0108002122F0200049280491F4
:1018200002D04E2828D04CE03BA0012607C88DE806
:101830000700A9690698641C88477F1E014606D4E4
:101840001DF8060018B121F0200181420BD0E96992
:1018500006988847032E34D0082E32D06FF001004E
:1018600009B0BDE8F08F761C032E01D0082EE0D120
:10187000601CCAF80000DCE7A9690698641C884768
:101880007F1E2AD420F02000412826D1A96906987D
:10189000641C88477F1E20D420F020004E281CD1D5
:1018A000A9690698641C88477F1E48F4002849F4FB
:1018B0008009CAF8004001D4282806D0E9690698B2
:1018C00088475FEACB7012D022E0A9690698641CB1
:1018D00088477F1E01D4002803DAE9690698884703
:1018E000BCE72928F1D1641CCAF80040E9E71BF0E5
:1018F000240F07D028680499031D2B600068C0E9F5
:10190000001805E02868021D2A600068C0F80090F1
:101910002046A5E70000F07F494E46494E495459FC
:10192000000000007047B2F120030AD5C2F1200385
:1019300001FA02F120FA03F300FA02F041EA03018E
:10194000704700FA03F14FF0000070473A2800D2C8
:10195000303820F02002412A01D3A2F1370088421A
:1019600001D34FF0FF3070475FEA400C08BF91F0A1
:10197000000F4FEA8C234FEAC12243EA51514FEA4C
:101980001C5018BF00F5F0404FEA300018BF41F07E
:1019900000415FEA6C5C00F02980BCF1FF3F08BFAA
:1019A00040F080407047130C06BF12044FF0100C3B
:1019B0004FF0000C130E04BF12020CF1080C130FB1
:1019C00004BF12010CF1040C930F04BF92000CF140
:1019D000020CD30F04BF52000CF1010C11464FF062
:1019E0000002A0F11F00A0EB0C00704711F0004FA7
:1019F00008BF704731F000413FF4D5AF0B0C06BF74
:101A000009044FF0100C4FF0000C0B0E04BF09023C
:101A10000CF1080C0B0F04BF09010CF1040C8B0F27
:101A200004BF89000CF1020CCB0F04BF49000CF17C
:101A3000010CCCF12003A0EB0C0022FA03F302FA14
:101A40000CF241EA030100F10100704720F07F4CE5
:101A500080EA030023F07F47ACEB070303F57C53D8
:101A600000F0004003F1FF032DE980494FEA154BD8
:101A700009B44FEA144325EA0B4E24EA03480FF257
:101A8000042606EB132749083E785FEA320203FB7F
:101A90000667C7F5000707FB06F64FEA54374FEA1B
:101AA000D64606F1020607FB066CCCF1005C4FEA55
:101AB0001C472CEA074C07FB06F40CFB06F504EB6D
:101AC00015464FEA961634BF00204FF000404FEA0B
:101AD000D13706FB07FC4FEA1C4C0CFB0BF7D21B63
:101AE00003FB0CF761EB07010CFB0EF7B0EB0740B3
:101AF00072EB17420CFB08F734BFA2EB0742B2EBC4
:101B0000074261EB17414FEA0C444FEA910706FB8D
:101B100007FC4FEA1C4C0CFB0BF7B0EBC74072EB19
:101B2000573203FB0CF734BFA2EBC742B2EBC742FC
:101B300061EB57310CFB0EF7B0EBC70072EB57723D
:101B40000CFB08F734BFA2EBC702B2EBC70261EB94
:101B50005771039F4FEA816141EA921104EBCC0473
:101B60004FEAD1374FEA826206FB07FC42EA901245
:101B70004FEA80604FEA1C4C0CFB0BF7D21B03FBB7
:101B80000CF761EB07010CFB0EF7B0EB074072EBB3
:101B900017420CFB08F734BFA2EB0742B2EB074237
:101BA00061EB17414FEA8C554FEA910704EB9C24F7
:101BB00006FB07FC4FEA1C4C0CFB0BF7B0EBC740D5
:101BC00072EB573203FB0CF734BFA2EBC742B2EB08
:101BD000C74261EB57310CFB0EF7B0EBC70072EB5D
:101BE00057720CFB08F734BFA2EBC702B2EBC70277
:101BF00061EB577115EB4C254FEA816141EA921177
:101C00004FEA82624FEAD13742EA901206FB07FCA4
:101C100044F100044FEA80604FEA1C4C0CFB0BF7C8
:101C2000D21B03FB0CF761EB07010CFB0EF7B0EBCB
:101C3000074072EB17420CFB08F734BFA2EB0742D8
:101C4000B2EB074261EB174115EB1C154FEA8131EE
:101C500041EA92414FEA823242EA90424FEA8030B2
:101C60004FEA0C7644F1000448EA03434EEA0B487D
:101C70004FF0000EB2EB080C71EB030724BF624675
:101C800039464EEB0E0E4FF0000B00185241494101
:101C90004BEB0B0BB2EB080C71EB03077BF1000B6A
:101CA00024BF624639464EEB0E0E4FF0000B001873
:101CB000524149414BEB0B0BB2EB080C71EB0307A4
:101CC0007BF1000B24BF624639464EEB0E0E51EA03
:101CD000020718BF46F0010616EB0E7655F100021A
:101CE00054F1000103D5BDE88901BDE80088BDE8D5
:101CF0008901BDE80048B619524141EB0101A3F149
:101D00000103704780807F7E7D7C7B7A797877764F
:101D100076757473727171706F6E6E6D6C6C6B6AC8
:101D20006A69686867666665646463636261616066
:101D3000605F5F5E5E5D5D5C5C5B5B5A5A595958E3
:101D4000585757565655555554545353525252514D
:101D5000515050504F4F4F4E4E4D4D4D4C4C4C4BA3
:101D60004B4B4A4A4A4949494848484747474746EA
:101D70004646454545444444444343434342424226
:101D80004241414146EA0646A3F570534FEA1646E2
:101D900046EA42564FEAD22242EA415210B54FEA91
:101DA000D121A3F1010300F02FF820F0004000F151
:101DB000020C00F0004701EB00501146BCF5006F2B
:101DC00040EA070000D210BDBAF1000F0AD01CB5DE
:101DD00003B44FF004004FF004014FF000000FBCBB
:101DE000BDE810404FF00001BBF1010FB9BF04483E
:101DF0004FF0FF310348002140EA070010BD00BF4B
:101E0000FFFFEF7F0000F07F002B9C4630D477006F
:101E10002BD01CB54FEA370703B44FF010004FF03A
:101E20001001BAF1000F06D0BCF1000FDCBF40F08A
:101E3000080040F008014FF000000FBCBDE8104062
:101E40000BF1010BBBF1010F08BF5FEA170722BFBF
:101E500012F1010211F101014FF0004143F10003C1
:101E600000F0004043EA00007047F9D35708D0E77C
:101E700046EA064613F1400F4FEA16461FDD13F1FE
:101E8000200FDFBF16430A46002120335B42BED03D
:101E9000C3F1200746EA064602FA07F74FEA16465C
:101EA00046EA0706C3F1200722FA03F201FA07F710
:101EB00021FA03F14FF0000342EA0702A7E746EADE
:101EC000020646EA06464FEA164646EA0106BCBF47
:101ED00046EA0646360C4FF000034FF000024FF082
:101EE000000194E72DE9804C9A46934670B491E83E
:101EF000380007C831EA400C48BF34EA430C03D528
:101F0000FFF7A4FDFFF780FFF0BCBDE8008C2DE9D2
:101F1000804C9A46934670B491E8380007C831EA7D
:101F2000400C48BF34EA430C03D5FFF78FFDFFF7A1
:101F300029FFF0BCBDE8008C2DE9804C9A46934601
:101F400070B491E8380007C810F0804F08BF13F054
:101F5000804F03D100F01AF8FFF756FFF0BCBDE840
:101F6000008C2DE9804C9A46934670B491E8380075
:101F700007C810F0804F08BF13F0804F03D100F066
:101F800005F8FFF7FFFEF0BCBDE8008C20F07F47AE
:101F900080EA030023F07F4C07EB0C03A3F57C538E
:101FA00000F00040A3F1FE0392F0000F00F0B380B8
:101FB00095F0000F00F077802DE901494FEA1140BC
:101FC0004FEA144621EA004800FB06FC24EA0647D3
:101FD00008FB06F607FB08F800FB07F718EB0648B6
:101FE0004CEB164C4FEA124B18EB07484FEA1546DC
:101FF0004CEB174022EA0B4E0BFB06FC25EA06478A
:102000000EFB06F607FB0EFE0BFB07F71EEB064E5C
:102010004CEB164C4FF000061EEB074E4CEB174BEB
:1020200018EB0B0840F1000018EB0E0B58EB000802
:1020300040F100008F1A4FF000013CBFC943661BFE
:1020400014BFB5EB040C00213CBFC943F61B4FEA9B
:1020500017444EEA8E0E27EA04454FEA1C4704FB5C
:1020600007622CEA074C05FB07F70CFB05F604FB9F
:102070000CFC16EB074642EB174216EB0C4642EB04
:102080001C421BEB060658EB0202414146EA9E0643
:1020900001D5BDE80189B619524141EB0101A3F117
:1020A0000103BDE801894FEA14454FEA114724EACC
:1020B000054621EA074C05FB07F406FB07F70CFB76
:1020C00006F105FB0CFC11EB074144EB17444FEA0A
:1020D000124711EB0C4144EB1C4422EA074C05FB70
:1020E00007F206FB07F70CFB06F605FB0CFC16EBEC
:1020F000074642EB174216EB0C4642EB1C456A18AA
:1021000054F1000148BF7047B619524141EB01013B
:10211000A3F10103704795F0000F37D04FEA114249
:102120004FEA144721EA024624EA074C02FB07F172
:1021300006FB07F70CFB06F402FB0CFC14EB074450
:1021400041EB17414FEA154714EB0C4441EB1C419E
:1021500025EA074C02FB07F506FB07F70CFB06F622
:1021600002FB0CFC16EB074645EB174516EB0C463D
:1021700045EB1C42121951F1000148BF7047B619D6
:10218000524141EB0101A3F1010370474FEA1445AD
:102190004FEA114724EA054621EA074C05FB07F1FF
:1021A00006FB07F70CFB06F24FF0000605FB0CFCE4
:1021B00012EB074241EB174112EB0C4251EB1C4171
:1021C00048BF7047921841EB0101A3F1010370472A
:1021D00000BFFEE710B5024800F080F910BD000016
:1021E0001C03002010B5024800F078F910BD000073
:1021F000BC0200200146087810381823B0FBF3F227
:102200000848805CC865032A05D908686FF309008F
:10221000001D886503E008686FF309008865886D14
:1022200070470000C4AD0008014600208A6A8B692F
:10223000CBB932B1012A0DD0022A03D0032A10D122
:102240000EE000BFCB6A03F08073B3F1807F00D152
:10225000012007E0CB6AB3F1C07F00D1012001E08B
:1022600000E000BF34E08B69B3F5005F1AD132B1F2
:10227000012A07D0022A03D0032A11D10AE000BFA5
:1022800001200EE0CB6A03F08073B3F1807F00D1B0
:10229000012006E0CB6AB3F1C07F00D1012000E04D
:1022A00000BF15E032B1012A05D0022A04D0032A6A
:1022B0000CD103E000BF00BF012008E0CB6A03F0AF
:1022C0008073B3F1807F00D1012000E000BF00BF28
:1022D000704730B50468246824F4802405682C60B5
:1022E000046863608468402C04D10468A2600468B8
:1022F000E16003E00468A1600468E26030BD7047FB
:1023000072B600BFFEE7000070B50446B3F5804F1B
:1023100013D1D1E9000540EA05108D6840EA052097
:102320008D6928438D8940EA054054F82250064EB5
:102330003540284344F8220003E06FF0704044F831
:102340002200002070BD00000000F0CF70B50246F2
:10235000086852F8200020F001000E6842F82600BC
:102360008868082801D1402300E00023486818430A
:102370008E683043CE6830430E6930434E69304337
:10238000CE6930430E6A30434E6A30438E6A304322
:10239000CE6A30430E6B40EA060488690443C86B7A
:1023A0000443074D45F4806545F4E025086852F87C
:1023B0002000A84320430E6842F82600002070BD8C
:1023C0007FFB080010B50346D1E9000440EA041081
:1023D0008C6840EA04208C8940EA0444088A401E44
:1023E00044EA0054087D801E44EA00608C69204362
:1023F000541C53F8244004F040442043541C43F838
:102400002400002010BD70B50446A56D00F0A8FBA7
:10241000064694F83500022808D08020606500BF89
:10242000002084F8340000BF012070BD20680068DF
:1024300020F01600216808602068406920F08000C4
:1024400021684861206C08B9A06C28B12068006838
:1024500020F00800216808602068006820F0010072
:102460002168086010E000F07BFB801B05280BD979
:1024700020206065032084F8350000BF002084F828
:10248000340000BF0320D0E72068006800F001009E
:102490000028E8D194F85C103F208840A860012013
:1024A00084F8350000BF002084F8340000BF00BF6E
:1024B000BBE7014691F83500022803D0802048652B
:1024C00001207047052081F835000868006820F079
:1024D00001000A6810600020F3E70000F8B5044628
:1024E000002000908C4800684FF41651B0FBF1F7C3
:1024F000A56D2E6894F85C1008208840304098B193
:102500002068006800F0040070B12068006820F0C6
:1025100004002168086094F85C1008208840A860D6
:10252000606D40F00100606594F85C100120884007
:10253000304068B12068406900F0800040B194F8F4
:102540005C1001208840A860606D40F0020060656A
:1025500094F85C1004208840304068B1206800681E
:1025600000F0020040B194F85C1004208840A8609C
:10257000606D40F00400606594F85C1010208840A5
:10258000304078B32068006800F0080050B394F839
:102590005C1010208840A8602068006800F480204B
:1025A00080B12068006800F4002028B9206CC8B110
:1025B0002046216C884715E0A06C98B12046A16C9C
:1025C00088470FE02068006800F4807028B9206810
:1025D000006820F0080021680860206C10B12046D7
:1025E000216C884794F85C102020884030400028F7
:1025F00065D02068006800F0100000285FD094F8D3
:102600005C1020208840A86094F83500052828D167
:102610002068006820F01600216808602068406982
:1026200020F0800021684861206C08B9A06C28B1B6
:102630002068006820F008002168086094F85C10A9
:102640003F208840A860012084F8350000BF0020AA
:1026500084F8340000BF206D10B12046216D8847FA
:10266000F8BD2068006800F4802080B12068006810
:1026700000F4002028B9606C10B12046616C8847D6
:102680001DE0E06BD8B12046E16B884717E0206879
:10269000006800F4807068B92068006820F01000BD
:1026A00021680860012084F8350000BF002084F80C
:1026B000340000BFE06B10B12046E16B8847606DCD
:1026C00038B3606D00F00100F0B1052084F83500EA
:1026D0002068006820F001002168086000BF0098B1
:1026E000401C0090B84200D905E02068006800F066
:1026F00001000028F3D100BF012084F8350000BF9D
:10270000002084F8340000BFE06C10B12046E16C7A
:10271000884700BFA4E70000180000202DE9F04121
:102720000446002500F01CFA074614B90120BDE854
:10273000F081606A00B100BF022084F8350000BF5C
:10274000002084F8340000BF2068006820F00100F9
:10275000216808600AE000F003FAC01B052805D9CB
:1027600020206065032084F83500E0E720680068D9
:1027700000F001000028EED12068056821480540DE
:10278000D4E901010843E16808432169084361690C
:102790000843A1690843E1690843216A08430543E6
:1027A000606A042803D1D4E90B010843054320687B
:1027B00005602068456925F00705606A0543606A81
:1027C00004280DD1A06A0543E06A48B12046FFF70E
:1027D0002BFD28B140206065012084F83500A6E774
:1027E000206845612046FFF705FD064694F85C1019
:1027F0003F208840B06000206065012084F83500EB
:10280000002094E73F8010F02DE9F04704460D4684
:1028100016461F464FF00008D4F8589000BF94F8B1
:102820003400012802D10220BDE8F087012084F89D
:10283000340000BF94F83500012825D1022084F827
:102840003500002060653B46324629462046FFF7AA
:1028500040FD94F85C103F208840C9F808002068CB
:10286000006840F0160021680860206C28B12068DC
:10287000006840F00800216808602068006840F0A7
:1028800001002168086006E000BF002084F83400E1
:1028900000BF4FF002084046C6E7000070B504468E
:1028A00000F05EF906462546681C10B10448007821
:1028B000054400BF00F054F9801BA842FAD370BD54
:1028C0001400002000B587B0142102A8FDF79AFE7D
:1028D0001B48006808B107B000BD01201849086016
:1028E00000BF002001901748006840F00100154922
:1028F00008600846006800F00100019000BF00BFBA
:102900004FF6807002900220039000200490032074
:1029100005900C20069002A90B4800F019F84CF61F
:10292000B3700290022003900020049003200590D1
:102930000C20069002A9054800F00AF800BFCAE77B
:10294000040000203838024000100240000C024011
:10295000F8B502460B460025002400200021D6E0F1
:10296000012606FA01F51E6806EA0504AC4274D198
:102970001E7906F00306012E04D01E7906F0030628
:10298000022E13D190684F000326BE40B0434F0083
:10299000DE68BE4030439060506801268E40B043F0
:1029A0001E79C6F300168E40304350601E7906F043
:1029B0000306032E09D0D0684F000326BE40B04363
:1029C0004F009E68BE403043D0601E7906F003067B
:1029D000022E13D1CF0802F1200656F827004E0729
:1029E000F70E0F26BE40B0434F07FF0E1E69BE40D4
:1029F0003043CF0802F1200646F8270010684F0048
:102A00000326BE40B0431E7906F003064F00BE40C9
:102A1000304310605E6806F44036002E76D000BF6A
:102A2000002600963C4E366846F480463A4F3E609B
:102A30003E46366806F48046009600BF00BF374E1B
:102A40008F0856F827008E07370F0F26BE40B04379
:102A5000334EB24202D1002624E057E0314EB2425A
:102A600001D101261EE0304EB24201D1022619E00A
:102A70002E4EB24201D1032614E02D4EB24201D1B6
:102A800004260FE02B4EB24201D105260AE02A4E61
:102A9000B24201D1062605E0284EB24201D10726F6
:102AA00000E008268F073F0FBE4030431B4E8F08C3
:102AB00046F82700224E3068A0435E6806F4801670
:102AC00006B120431E4E3060361D3068A0435E685C
:102AD00006F4001606B12043194E361D3060184E1C
:102AE000361F3068A0435E6806F4003606B1204306
:102AF000134E361F3060361F3068A0435E6806F400
:102B0000803606B120430E4E083E3060491C102925
:102B1000FFF426AFF8BD00004438024008380140F9
:102B2000000002400004024000080240000C024085
:102B3000001002400014024000180240001C024035
:102B4000083C0140024613690B400BB1012000E034
:102B5000002070470AB1816101E00B048361704776
:102B600001480068704700000C000020034800681E
:102B70000349097808440149086070470C000020A7
:102B80001400002010B50D48006840F400700B4997
:102B900008600846006840F48060086008460068E5
:102BA00040F480700860032000F0C4F80F2000F0AB
:102BB00007F800F02BF8002010BD0000003C024098
:102BC00070B504460E4800784FF47A71B1FBF0F00E
:102BD0000C490968B1FBF0F5284600F081FC08B10A
:102BE000012070BD102C07D200222146501E00F09B
:102BF00063F80548046001E00120F2E70020F0E7F7
:102C000014000020180000201000002008B500BFAC
:102C1000002000900E48006840F480400C49086095
:102C20000846006800F48040009000BF00BF00BF6D
:102C300000200090081F006840F08050091F0860C5
:102C40000846006800F08050009000BF00BF08BD3B
:102C50004438024010B501460846002817DB00F052
:102C60001F0301229A400B4B440943F8242000BF64
:102C700000BF00BFBFF34F8F00BF00BF00BF00BF4A
:102C800000BF00BFBFF36F8F00BF00BF00BF00BF1A
:102C900010BD000080E100E001460846002809DB85
:102CA00000F01F0301229A4043099B0003F1E02337
:102CB000C3F8002100BF70472DE9F05F80460D4644
:102CC0001646002704F0F0FF074639462A463346E9
:102CD00001F00700C0F1070ABAF1040F02D94FF062
:102CE000040A01E0C0F1070AD14600F1040ABAF172
:102CF000070F02D24FF0000A01E0A0F1030AD44608
:102D00004FF0010A0AFA09FAAAF1010A0AEA020ACC
:102D10000AFA0CFA4FF0010B0BFA0CFBABF1010BAA
:102D20000BEA030B4AEA0B042146404604F0C4FFB9
:102D3000BDE8F09F00BF00F00702064B19684FF690
:102D4000FF031940044B0B4343EA0221014B196076
:102D500000BF70470CED00E00000FA0570B50446B6
:102D60000D460CB9012070BD5848006800F00700FE
:102D7000A84209D255490D700846006800F00700C6
:102D8000A84201D00120EEE7207800F002000228DE
:102D90001DD1207800F00400042805D14C480068BB
:102DA00040F4E0504A490860207800F00800082804
:102DB00005D14748006840F46040454908604448F0
:102DC000006820F0F000A1680843414908602078BD
:102DD00000F00100A8B36068012807D13C4808381A
:102DE0000068C0F34040B8B90120BCE76068022821
:102DF00002D06068032807D1354808380068C0F35E
:102E0000406048B90120AEE7314808380068C0F397
:102E1000400008B90120A6E72D48006820F0030013
:102E2000616808432A490860FFF79AFE064609E0F0
:102E3000FFF796FE801B41F28831884202D90320B9
:102E400091E707E02248006800F00C006168B0EBF1
:102E5000810FEDD11D48006800F00700A84209D994
:102E60001A490D700846006800F00700A84201D01A
:102E7000012078E7207800F00400042807D11448E6
:102E8000006820F4E050E1680843114908602078A8
:102E900000F00800082808D10D48006820F46040C0
:102EA000216940EAC1000A49086000F03FF808497A
:102EB0000968C1F30311074A515CC840064908601C
:102EC00006480068FFF77CFE00204CE7003C02400B
:102ED00008380240CCAD0008180000201000002087
:102EE00001480068704700001800002000B5FFF797
:102EF000F7FF04490968C1F38221034A515CC840C5
:102F000000BD000008380240DCAD000800B5FFF746
:102F1000E7FF04490968C1F34231034A515CC840E4
:102F200000BD000008380240DCAD00082DE9F04784
:102F3000002400250026A1462548006800F00C006A
:102F400020B1042805D008283AD105E0DFF88490A4
:102F500039E0DFF8849036E01D48001F006800F07B
:102F60003F041B48001F006800F4800078B11A4835
:102F70001749091F0968C1F38811A0FB01700146B8
:102F8000224600233846FDF785F905460EE0114834
:102F90000F49091F0968C1F38811A0FB01700146A0
:102FA000224600233846FDF775F905460848001FFC
:102FB0000068C0F30140401C4600B5FBF6F902E092
:102FC000DFF8109000BF00BF4846BDE8F087000062
:102FD000083802400024F40000127A00F8B50446D4
:102FE0000CB90120F8BD207800F00100002874D051
:102FF000F948006800F00C0004280DD0F64800687D
:1030000000F00C00082813D1F348001F006800F4FA
:103010008000B0F5800F0BD1EF4808380068C0F38E
:103020004040002859D06068002856D10120D9E7D7
:1030300000BF6068B0F5803F08D1E74808380068F5
:1030400040F48030E449083908601EE06068B0F55B
:10305000A02F0DD1E0480838006840F48020DE49F8
:10306000083908600846006840F4803008600CE0C9
:10307000D9480838006820F48030D74908390860FA
:103080000846006820F48020086000BF606890B1A6
:10309000FFF766FD054606E0FFF762FD401B64286A
:1030A00001D903209EE7CC4808380068C0F34040AF
:1030B0000028F1D011E0FFF753FD054606E0FFF7C9
:1030C0004FFD401B642801D903208BE7C248083814
:1030D0000068C0F340400028F1D1207800F00200E1
:1030E00002285FD1BC48006800F00C0058B1BA4813
:1030F000006800F00C0008281CD1B748001F0068C9
:1031000000F48000B0B9B44808380068C0F340004B
:1031100020B1E068012801D0012063E7AE480838FB
:10312000006820F0F800216940EAC100AA49083986
:10313000086037E0E06800B30120A8490860FFF7A5
:103140000FFD054606E0FFF70BFD401B022801D9E5
:10315000032047E7A04808380068C0F34000002873
:10316000F1D09D480838006820F0F800216940EA55
:10317000C10099490839086014E0002097490860A7
:10318000FFF7EEFC054606E0FFF7EAFC401B0228CD
:1031900001D9032026E7904808380068C0F34000B2
:1031A0000028F1D1207800F0080008282CD16069AF
:1031B000A8B101208A490860FFF7D2FC054606E065
:1031C000FFF7CEFC401B022801D903200AE7824802
:1031D0006C300068C0F340000028F1D014E00020FB
:1031E0007F490860FFF7BCFC054606E0FFF7B8FC26
:1031F000401B022801D90320F4E677486C300068B0
:10320000C0F340000028F1D1207800F00400042829
:1032100070D1002770483830006800F0805090B9B5
:1032200000BF002000906C483830006840F08050AB
:103230006949383108600846006800F08050009005
:1032400000BF00BF01276748006800F48070B0B974
:103250006448006840F4807062490860FFF780FCB1
:10326000054606E0FFF77CFC401B022801D903203D
:10327000B8E65C48006800F480700028F2D000BF17
:10328000A068012808D154486830006840F0010067
:103290005149683108601DE0A06805280DD14E48ED
:1032A0006830006840F004004B4968310860084607
:1032B000006840F0010008600CE047486830006892
:1032C00020F001004449683108600846006820F099
:1032D0000400086000BFA068A8B1FFF741FC0546E4
:1032E00009E0FFF73DFC401B41F28831884202D9DA
:1032F000032077E626E0384868300068C0F34000D5
:103300000028EED013E0FFF72BFC054608E0FFF79E
:1033100027FC401B41F28831884201D9032061E635
:103320002D4868300068C0F340000028EFD1012F1D
:1033300007D129483830006820F0805026493831BC
:10334000086000BFA069002845D02348006800F04D
:103350000C0008285DD0A069022845D100201F4933
:103360000866FFF7FDFB054606E0FFF7F9FB401B8B
:10337000022801D9032035E6174808380068C0F351
:1033800040600028F1D1D4E907010843616A40EAAE
:1033900081110122A06AC2EB500041EA00412C20B9
:1033A000005D41EA00600C49091F086001200B49DB
:1033B0000866FFF7D5FB054606E0FFF7D1FB401B8B
:1033C000022801D903200DE6034808380068C0F33D
:1033D00040600028F1D049E0083802400000474230
:1033E000800E474200700040002021490866FFF728
:1033F000B7FB054606E0FFF7B3FB401B022801D9E7
:103400000320EFE51B480068C0F340600028F2D1BC
:103410002CE0A069012800D1E4E51648001D0668EB
:10342000A069012820D006F48001E06981421BD107
:1034300006F03F01206A814216D147F6C070304045
:10344000616AB0EB811F0FD106F440310122A06AFE
:10345000C2EB5000B1EB004F06D106F070612C209A
:10346000005DB1EB006F01D00120BBE50020B9E5A4
:10347000000047420038024070B504460E4615462B
:103480000CB9012070BD94F8490028B9002084F8D7
:103490004800204600F01FF804F108012068FEF7FC
:1034A00055FF3146A2682068FEF78CFF2946236B42
:1034B000D4E90102FEF728FFA168206850F8210036
:1034C00040F00100A268216841F82200012084F840
:1034D00049000020D6E710B50446FFF7F3F910BD08
:1034E00070B504462546681EB0F1807F01D30120E7
:1034F0000FE0681E4FF0E02148610F214FF0FF30D0
:1035000004F0DAFB00204FF0E02188610720086119
:10351000002070BD30B502460B4600BF92F83C005B
:10352000012801D1022030BD012082F83C0000BFFB
:10353000022082F83D00106844681068816824F019
:1035400070041868044310684460184D1068A8425D
:103550001BD01068B0F1804F17D0154D1068A842ED
:1035600013D0144D1068A8420FD0134D1068A84214
:103570000BD0124D1068A84207D0114D1068A84218
:1035800003D0104D1068A84205D121F08001586881
:10359000014310688160012082F83D0000BF0020D7
:1035A00082F83C0000BF00BFBDE700000000014002
:1035B0000004004000080040000C004000040140EE
:1035C000004001400018004010B504460CB901202D
:1035D00010BD94F83D0028B9002084F83C00204636
:1035E00000F026F8022084F83D00211D206803F039
:1035F00003FF012084F8460000BF84F83E0001214B
:103600003F200155402001554120015500BF00BF1A
:10361000012084F8420043200155442001554520F3
:10362000015500BF012084F83D000020D0E70000D4
:1036300008B50A4A016891420FD100BF00210091EC
:103640000749096841F00801054A116011460968F7
:1036500001F00801009100BF00BF08BD000C004050
:1036600040380240014691F83D00012801D0012078
:103670007047022081F83D001A4B086898421BD021
:103680000868B0F1804F17D0174B0868984213D0E4
:10369000164B086898420FD0154B086898420BD01B
:1036A000144B0868984207D0134B0868984203D01F
:1036B000124B086898420CD10868806800F0070235
:1036C000062A0CD00868006840F001000B681860FA
:1036D00005E00868006840F001000B6818600020F1
:1036E000C6E7000000000140000400400008004060
:1036F000000C004000040140004001400018004060
:10370000014600BF0868006A41F21112104050B92A
:103710000868006A9210104028B90868006820F014
:1037200001000A68106000BF012081F83D00002000
:1037300070472DE9F04104460D46002700BF94F87C
:103740003C00012802D10220BDE8F081012084F86C
:103750003C0000BF022084F83D002068866826F007
:10376000770626F47F46206886602868502833D084
:103770000CDC202850D004DC00284BD0102851D17C
:1037800049E0302849D040284CD139E060282DD07C
:10379000702807D0B0F5805F03D0B0F5005F41D14D
:1037A0000DE041E0D5E902136A68206803F090FE5D
:1037B0002068866846F077062068866034E0D5E9A0
:1037C00002136A68206803F083FE2068806840F472
:1037D00080402168886027E0EA686968206803F013
:1037E0008BFE5021206803F07EFE1DE0EA686968C8
:1037F000206803F094FE6021206803F074FE13E05B
:10380000EA686968206803F077FE4021206803F0C9
:103810006AFE09E000BF00BF00BF2968206803F00E
:1038200062FE01E0012700BF00BF012084F83D00D7
:1038300000BF002084F83C0000BF384684E7704792
:1038400070B50446002520684069C0F3C01594F89F
:103850003D00212817D1B5B100BF00BF2168143148
:1038600051E8001F21F080002168143141E8000276
:10387000002AF3D100BF606B10B1606BFEF7C3FD8F
:10388000204603F040FF20684069C0F3801594F89B
:103890003E00222817D1B5B100BF00BF2168143106
:1038A00051E8001F21F040002168143141E8000276
:1038B000002AF3D100BFA06B10B1A06BFEF7A3FDEF
:1038C000204603F0DAFE002070BD70472DE9F84F66
:1038D0000446206805682068C668206847694FF07C
:1038E0000009CA4605F00F09B9F1000F0AD105F029
:1038F000200038B106F0200020B1204603F016FF6A
:10390000BDE8F88FB9F1000F7CD007F0010018B9BD
:1039100006F49070002875D005F0010030B106F46F
:10392000807018B1206C40F00100206405F00400A4
:1039300030B107F0010018B1206C40F002002064A3
:1039400005F0020030B107F0010018B1206C40F022
:103950000400206405F0080048B106F0200010B90A
:1039600007F0010018B1206C40F008002064206CC2
:10397000002846D005F0200028B106F0200010B144
:10398000204603F0D3FE20684069C0F3801A206C03
:1039900000F0080010B9BAF1000F2DD0204603F056
:1039A0006CFE2068406900F04000402820D100BF34
:1039B00000BF2168143151E8001F21F04000216848
:1039C000143141E80002002AF3D100BFA06B50B1CE
:1039D0007548A16B0865A06BFEF76BFD88B1A06B05
:1039E000016D88470DE02046FFF76FFF09E009E011
:1039F0002046FFF76AFF04E02046FFF766FF00203D
:103A000020647DE7206B012876D105F010000028A6
:103A100072D006F010000028FAD000BF00200090FD
:103A200020680068009020684068009000BF00BFD8
:103A30002068406900F0400040285ED1A06B00681B
:103A400040681FFA80F8B8F1000F54D0A08D4045AF
:103A500051DDA4F82E80A06BC069B0F5807F43D003
:103A600000BF00BF21680C3151E8001F21F48070B5
:103A700021680C3141E80002002AF3D100BF00BFE9
:103A800000BF2168143151E8001F21F001002168B6
:103A9000143141E80002002AF3D100BF00BF00BF8B
:103AA0002168143151E8001F21F0400021681431D1
:103AB00041E80002002AF3D100BF202084F83E0034
:103AC0000020206300BF00BF21680C3151E8001FB7
:103AD00021F0100021680C3141E80002002AF3D1E6
:103AE00000BFA06BFEF78FFCA08DE28D801A81B223
:103AF0002046FFF7A4FE03E740E0A08DE18D401AC9
:103B00001FFA80F8E08DC0B3B8F1000F35D000BFC8
:103B100000BF21680C3151E8001F21F4907021682A
:103B20000C3141E80002002AF3D100BF00BF00BF02
:103B30002168143151E8001F21F00100216814317F
:103B400041E80002002AF3D100BF202084F83E00A3
:103B50000020206300BF00BF21680C3151E8001F26
:103B600021F0100021680C3141E80002002AF3D155
:103B700000BF41462046FFF762FEC1E605F0800027
:103B800030B106F0800018B1204603F0C9FFB7E657
:103B900005F0400030B106F0400018B1204603F0B7
:103BA000A2FDADE600BFABE64775000810B50446C0
:103BB0000CB9012010BDA06900B100E000BF94F86D
:103BC0003D0028B9002084F83C00204600F028F889
:103BD000242084F83D002068C06820F4005021684B
:103BE000C860204603F01EFE2068006920F4904063
:103BF000216808612068406920F02A002168486136
:103C00002068C06840F400502168C860002020642B
:103C1000202084F83D0084F83E000020CAE7000020
:103C200010B586B00446142101A8FCF7EBFC5C49F2
:103C30002068884255D100BF002000905948006894
:103C400040F01000574908600846006800F0100076
:103C5000009000BF00BF00BF002000905148143802
:103C6000006840F002004F491439086008460068B7
:103C700000F00200009000BF00BFC02001900220B1
:103C8000029000200390032004900720059001A9D2
:103C90004548FEF75DFE4548454908604FF0006025
:103CA0004860002142488160C1604FF48061016139
:103CB000002141618161C16101624162FEF72EFD17
:103CC00008B1FEF71DFB00BF3948A063846300BF45
:103CD000002211462520FEF7EFFF2520FEF7DCFF2E
:103CE0005BE034492068884257D100BF0020009033
:103CF0002C48001F006840F480202A49091F0860F2
:103D00000846006800F48020009000BF00BF00BF9C
:103D10000020009023481438006840F00200214938
:103D2000143908600846006800F00200009000BFE7
:103D300000BF4FF4406001900220029000200390E9
:103D4000032004900720059001A91748FEF700FE04
:103D500019481A4908604FF0006048600021174870
:103D60008160C1604FF48061016100214161816126
:103D7000C16101624162FEF7D1FC08B1FEF7C0FAF1
:103D800000BF0E48A063846300BF002211462720B5
:103D9000FEF792FF2720FEF77FFF06B010BD000060
:103DA00000100140443802400004024040640240D8
:103DB000BC02002000480040286002401C03002094
:103DC00070B504460D46164694F83E00202816D1DC
:103DD00005B10EB9012070BD00BF94F83C00012868
:103DE00001D10220F7E7012084F83C0000BF002049
:103DF000206332462946204603F02AFEEBE70220E4
:103E0000E9E7704770472DE9F84F04460E4617461C
:103E100099464FF0000A94F83D0020285AD106B187
:103E200017B90120BDE8F88F00BF94F83C000128C5
:103E300001D10220F6E7012084F83C0000BF0020F9
:103E40002064212084F83D00FEF78AFE8246A78484
:103E5000E784A068B0F5805F04D1206910B900251F
:103E6000B04602E035464FF0000800BF002084F85D
:103E70003C0000BF1BE05346002280212046CDF8C5
:103E8000009003F07DFE08B10320CBE745B9B8F8F8
:103E90000000C0F308002168486008F1020803E050
:103EA0002878216848606D1CE08C401EE084E08C1E
:103EB0000028E0D15346002240212046CDF8009052
:103EC00003F05EFE08B10320ACE7202084F83D003B
:103ED0000020A7E70220A5E7704700BFFEE700002B
:103EE00070B50446002609480588408845430021EE
:103EF000084602F0E7FE03F05FF800BF02E0044965
:103F00000C80761CAE42FAD370BD0000F403002092
:103F10000000026010B5044649488471002C45D168
:103F2000F020474908804FF4A070488008468088F8
:103F300045F21051884210D14FF430504049088169
:103F40004FF4285048814FF42C5088814FF4F07082
:103F500008804FF4487048801AE03948808841F65C
:103F6000631188420DD12C20354908812B204881CE
:103F70002A2088814FF4F07008804FF44870488000
:103F800006E02C202E4908812A2048812B20888198
:103F90002B48808845F2103188424CD14FF4A070F4
:103FA000274908804FF4F070488044E04FF4A07037
:103FB00023490880F02048800846808845F2105147
:103FC000884210D14FF430501D4908814FF42850D9
:103FD00048814FF42C5088814FF4487008804FF48A
:103FE000F07048801AE01648808841F663118842D4
:103FF0000DD12C20124908812A2048812B2088814C
:104000004FF4487008804FF4F070488006E02C2090
:104010000B4908812A2048812B2088810848808804
:1040200045F21031884206D14FF4F07004490880FF
:104030004FF4A0704880002002F02AFD10BD00005F
:10404000F40300202DE9FF4F84B081468A4600200A
:10405000039002900698A0EB09050798A0EB0A06CA
:10406000CDF80490CDF800A0002D01DD012705E07A
:104070000DB9002702E04FF0FF376D42002E02DD40
:104080004FF0010806E016B94FF0000802E04FF0CB
:10409000FF387642B54201DD2C4600E034464FF051
:1040A000000B21E0009A91B2019A90B200F022F840
:1040B0000398284403900298304402900398A04249
:1040C00005DD0398001B0390019838440190029885
:1040D000A04205DD0298001B029000984044009029
:1040E0000BF101001FFA80FB601C8345DADD08B08C
:1040F000BDE8F08F30B504460D462946204602F053
:10410000E1FD02F059FF024800880249088030BDF5
:10411000240000200000026010B52DED108B82B04D
:10412000B0EE408AF0EE608A9FED4E0A8DED010AF6
:104130009FED4C0A8DED000A18EE900A06F044FD42
:1041400041EC1F0B9FED480B53EC102B06F046FA89
:1041500041EC1E0B9FED460B53EC102B05F0E6FFD8
:1041600041EC1D0BB0EE4D0AF0EE6D0A03F050FE6F
:10417000B0EE40BAF0EE60BA9FED3F0A28EE000ABA
:10418000F2EE040A80EE201A11EE104A204606F0E4
:104190001BFD41EC1C0B53EC1B2B06F01FFA41ECF2
:1041A0001A0B9FED360B53EC102B05F003FF41EC7F
:1041B000190B05F0CDFE019018EE900A06F004FDF3
:1041C00041EC1E0B9FED280B53EC102B06F006FA6A
:1041D00041EC1D0B9FED260B53EC102B05F0A6FFB9
:1041E00041EC1C0BB0EE4C0AF0EE6C0A03F0E8FE5A
:1041F000B0EE40AAF0EE60AA9FED1F0A28EE000A7A
:10420000F2EE040A80EE201A11EE104A204606F063
:10421000DBFC41EC1B0B53EC1A2B06F0DFF941ECF5
:10422000190B9FED160B53EC102B06F00BFB41EC1A
:104230001F0B05F08DFE00909DED000ABCEEC00A3C
:1042400010EE102A91B29DED010ABCEEC00A10EEEC
:10425000102A90B2032200F015F802B0BDEC108BCA
:1042600010BD000000000000182D4454FB2109403F
:10427000000000000080664000007A44000000005A
:10428000000054402DE9F04306460F4690460024B6
:1042900045460320A0EB48093CE07A1B91B2321955
:1042A00090B2FFF727FF3A1B91B2721990B2FFF755
:1042B00021FF3A1991B2721990B2FFF71BFF7A19D8
:1042C00091B2321990B2FFF715FF7A1991B2321BF1
:1042D00090B2FFF70FFF3A1991B2721B90B2FFF73D
:1042E00009FF7A1B91B2321B90B2FFF703FF3A1B12
:1042F00091B2721B90B2FFF7FDFE641CB9F1000F82
:1043000003DAA000801D814404E0601B80000A30B5
:1043100081446D1EAC42C0DDBDE8F08330B504467B
:104320000D463848808845F21051884220D13549E1
:10433000488902F035FE201202F026FE31494989F3
:10434000491C88B202F02CFEE0B202F01DFE2D499D
:10435000888902F025FE281202F016FE2949898973
:10436000491C88B202F01CFEE8B202F00DFE42E0E9
:104370002448808841F66311884228D121488079F9
:1043800020B920480088401E001B84B21D4948897E
:1043900002F006FE201202F0F7FDE0B202F0F4FD9A
:1043A000201202F0F1FDE0B202F0EEFD154988891D
:1043B00002F0F6FD281202F0E7FDE8B202F0E4FD9B
:1043C000281202F0E1FDE8B202F0DEFD13E00D4933
:1043D000488902F0E5FD201202F0D6FDE0B202F0BD
:1043E000D3FD0849888902F0DBFD281202F0CCFDDC
:1043F000E8B202F0C9FD0348008903490880891C1E
:104400000A8030BDF4030020FEFF016010B53220A9
:10441000FEF744FAD32002F0C3FD02F0FFFAFD4993
:10442000888002F0FBFAFB49888002F0F7FAF9492C
:104430008880084680884FF6FF7101EA0020F54920
:10444000888002F0EBFAF34989880843F1498880B3
:104450000846808849F2413188427DD0042002F02C
:104460009FFD02F0DBFAEB49888002F0D7FAE949B8
:10447000888002F0D3FAE7498880084680884FF6A2
:10448000FF7101EA0020E349888002F0C7FAE149A0
:1044900089880843DF4988800846808848F252515D
:1044A000884203D147F28970DA498880D9488088E8
:1044B00047F289718842D0D0D42002F071FD02F019
:1044C000ADFAD449888002F0A9FAD249888002F076
:1044D000A5FAD0498880084680884FF6FF7101EA26
:1044E0000020CC49888002F099FACA49898808439B
:1044F000C84988800846808845F2103188426BD0D0
:1045000055214FF4704002F061FDAA214FF20100E5
:1045100002F05CFD52214FF2020002F057FD08212B
:104520004FF2030002F052FD01214FF2040002F0AD
:104530004DFD4FF4454002F033FD02F06FFAB549EE
:104540008880084680884FF6FF7101EA0020B14953
:1045500088804CF2015000E03EE002F021FD02F0C4
:104560005DFAAC4989880843AA4988800520FEF78E
:1045700095F9A8488088B0F5004F03D145F2105056
:10458000A4498880A348808845F21051884223D0EE
:10459000A12002F005FD02F041FA9E49888002F058
:1045A0003DFA9C498880084680884FF6FF7101EAF1
:1045B00000209849888002F031FA9649898808439A
:1045C000944988800846808845F26171884203D109
:1045D00041F663108F4988808E48808849F24131C6
:1045E00088427CD1CF2002F0DBFC002002F0CCFC22
:1045F000C12002F0C9FC302002F0C6FCED2002F020
:10460000CFFC642002F0C0FC032002F0BDFC1220AD
:1046100002F0BAFC812002F0B7FCE82002F0C0FCF6
:10462000852002F0B1FC102002F0AEFC7A2002F0EE
:10463000ABFCCB2002F0B4FC392002F0A5FC2C200E
:1046400002F0A2FC002002F09FFC342002F09CFC4F
:10465000022002F099FCF72002F0A2FC202002F0D8
:1046600093FCEA2002F09CFC002002F08DFC00206C
:1046700002F08AFCC02002F093FC1B2002F084FCB4
:10468000C12002F08DFC012002F07EFCC52002F06A
:1046900087FC302002F078FC302002F075FCC72047
:1046A00002F07EFCB72002F06FFC362002F078FCAE
:1046B000482002F069FC3A2002F072FC552002F01A
:1046C00063FCB12002F06CFC002002F05DFC1A20BB
:1046D00002F05AFCB62002F063FC0A2000E09BE0E6
:1046E00002F052FCA22002F04FFCF22002F058FC33
:1046F000002002F049FC262002F052FC012002F0CA
:1047000043FCE02002F04CFC0F2002F03DFC2A208C
:1047100002F03AFC282002F037FC082002F034FCBA
:104720000E2002F031FC082002F02EFC542002F092
:104730002BFCA92002F028FC432002F025FC0A20D3
:1047400002F022FC0F2002F01FFC002002F01CFCF3
:10475000002002F019FC002002F016FC002002F0FC
:1047600013FCE12002F01CFC002002F00DFC1520DF
:1047700002F00AFC172002F007FC072002F004FCFC
:10478000112002F001FC062002F0FEFB2B2002F0BB
:10479000FBFB562002F0F8FB3C2002F0F5FB052065
:1047A00002F0F2FB102002F0EFFB0F2002F0ECFB16
:1047B0003F2002F0E9FB3F2002F0E6FB0F2002F071
:1047C000E3FB2B2002F0ECFB002002F0DDFB0020DD
:1047D00002F0DAFB012002F0D7FB3F2002F0D4FB0D
:1047E0002A2002F0DDFB002002F0CEFB002002F0C8
:1047F000CBFB002002F0C8FBEF2002F0C5FB11202C
:1048000002F0CEFB7820FEF749F8292002F0C8FB21
:1048100002F0A8B8F4030020FE48808847F28971AE
:1048200088427CD1112002F0BBFB7820FEF736F8DD
:10483000362002F0B5FB002002F0A6FB3A2002F081
:10484000AFFB052002F0A0FBB22002F0A9FB0C2078
:1048500002F09AFB0C2002F097FB002002F094FB80
:10486000332002F091FB332002F08EFBB72002F0E0
:1048700097FB352002F088FBBB2002F091FB322031
:1048800002F082FBC02002F08BFB0C2002F07CFBCC
:10489000C22002F085FB012002F076FBC32002F06B
:1048A0007FFB102002F070FBC42002F079FB202077
:1048B00002F06AFBC62002F073FB0F2002F064FBDB
:1048C000D02002F06DFBA42002F05EFBA12002F0DC
:1048D0005BFBE02002F064FBD02002F055FB0020DF
:1048E00002F052FB022002F04FFB072002F04CFBCB
:1048F0000A2002F049FB282002F046FB322002F099
:1049000043FB442002F040FB422002F03DFB062026
:1049100002F03AFB0E2002F037FB122000E056E0D6
:1049200002F032FB142002F02FFB172002F02CFBC8
:10493000E12002F035FBD02002F026FB002002F03F
:1049400023FB022002F020FB072002F01DFB0A20BF
:1049500002F01AFB282002F017FB312002F014FBB2
:10496000542002F011FB472002F00EFB0E2002F053
:104970000BFB1C2002F008FB172002F005FB1B209C
:1049800002F002FB1E2002F0FFFA2A2002F008FBD0
:10499000002002F0F9FA002002F0F6FA002002F0FE
:1049A000F3FAEF2002F0F0FA2B2002F0F9FA0020DF
:1049B00002F0EAFA002002F0E7FA012002F0E4FA3D
:1049C0003F2002F0E1FA292002F0EAFA20E79148BC
:1049D000808845F21031884240F07C87ED2002F05B
:1049E000DFFA012002F0D0FAFE2002F0CDFAEE202C
:1049F00002F0D6FADE2002F0C7FA212002F0C4FA53
:104A0000F12002F0CDFA012002F0BEFADF2002F020
:104A1000C7FA102002F0B8FAC42002F0C1FA8F20C1
:104A200002F0B2FAC62002F0BBFA002002F0ACFAA3
:104A3000E22002F0A9FAE22002F0A6FAE22002F057
:104A4000A3FABF2002F0ACFAAA2002F09DFAB0202F
:104A500002F0A6FA0D2002F097FA002002F094FA74
:104A60000D2002F091FA002002F08EFA112002F0DF
:104A70008BFA002002F088FA192002F085FA002053
:104A800002F082FA212002F07FFA002002F07CFA84
:104A90002D2002F079FA002002F076FA3D2002F093
:104AA00073FA002002F070FA5D2002F06DFA002027
:104AB00002F06AFA5D2002F067FA002002F064FA60
:104AC000B12002F06DFA802002F05EFA002002F0C0
:104AD0005BFA8B2002F058FA002002F055FA96207B
:104AE00002F052FA002002F04FFAB22002F058FA17
:104AF000002002F049FA002002F046FA022002F0FB
:104B000043FA002002F040FA032002F03DFA0020B0
:104B100002F03AFAB32002F043FA002002F034FA2D
:104B2000002002F031FA002002F02EFA002002F0FC
:104B30002BFA002002F028FA002002F025FA0020CB
:104B400002F022FA002002F01FFA002002F01CFA04
:104B5000002002F019FA002002F016FA002002F0FC
:104B600013FA002002F010FA002002F00DFA0020E3
:104B700002F00AFA002002F007FA002002F004FA1C
:104B8000002002F001FA002002F0FEF9002002F0FD
:104B9000FBF9002002F0F8F9002002F0F5F90020FE
:104BA00002F0F2F9002002F0EFF9B42002F0F8F977
:104BB0008B2002F0E9F9002002F0E6F9962002F0DD
:104BC000E3F9002002F0E0F9A12002F0DDF9002075
:104BD00002F0DAF9B52002F0E3F9022002F0D4F98C
:104BE000002002F0D1F9032002F0CEF9002002F0FB
:104BF000CBF9042002F0C8F9002002F0C5F9B62074
:104C000002F0CEF9002002F0BFF9002002F0BCF95A
:104C1000B72001E0F403002002F0C2F9002002F006
:104C2000B3F9002002F0B0F93F2002F0ADF9002006
:104C300002F0AAF95E2002F0A7F9002002F0A4F920
:104C4000642002F0A1F9002002F09EF98C2002F00D
:104C50009BF9002002F098F9AC2002F095F90020B1
:104C600002F092F9DC2002F08FF9002002F08CF9BA
:104C7000702002F089F9002002F086F9902002F0FD
:104C800083F9002002F080F9EB2002F07DF900208A
:104C900002F07AF9DC2002F077F9002002F074F9D2
:104CA000B82002F07DF9002002F06EF9002002F039
:104CB0006BF9002002F068F9002002F065F900208D
:104CC00002F062F9002002F05FF9002002F05CF9C6
:104CD000002002F059F9BA2002F062F9242002F013
:104CE00053F9002002F050F9002002F04DF90020A5
:104CF00002F04AF9C12002F053F9202002F044F9F1
:104D0000002002F041F9542002F03EF9002002F0A8
:104D10003BF9FF2002F038F9002002F035F9C220FB
:104D200002F03EF90A2002F02FF9002002F02CF9DF
:104D3000042002F029F9002002F026F9C32002F035
:104D40002FF93C2002F020F9002002F01DF93A2052
:104D500002F01AF9002002F017F9392002F014F9D4
:104D6000002002F011F9372002F00EF9002002F0C5
:104D70000BF93C2002F008F9002002F005F936207A
:104D800002F002F9002002F0FFF8322002F0FCF8F5
:104D9000002002F0F9F82F2002F0F6F8002002F0CF
:104DA000F3F82C2002F0F0F8002002F0EDF82920B2
:104DB00002F0EAF8002002F0E7F8262002F0E4F81A
:104DC000002002F0E1F8242002F0DEF8002002F0DA
:104DD000DBF8242002F0D8F8002002F0D5F82320D8
:104DE00002F0D2F8002002F0CFF83C2002F0CCF81C
:104DF000002002F0C9F8362002F0C6F8002002F0C8
:104E0000C3F8322002F0C0F8002002F0BDF82F20D5
:104E100002F0BAF8002002F0B7F82C2002F0B4F843
:104E2000002002F0B1F8292002F0AEF8002002F0D4
:104E3000ABF8262002F0A8F8002002F0A5F8242004
:104E400002F0A2F8002002F09FF8242002F09CF863
:104E5000002002F099F8232002F096F8002002F0DA
:104E600093F8C42002F09CF8622002F08DF8002034
:104E700002F08AF8052002F087F8002002F084F89A
:104E8000842002F081F8002002F07EF8F02002F089
:104E90007BF8002002F078F8182002F075F8002066
:104EA00002F072F8A42002F06FF8002002F06CF813
:104EB000182002F069F8002002F066F8502002F095
:104EC00063F8002002F060F80C2002F05DF800208A
:104ED00002F05AF8172002F057F8002002F054F8B8
:104EE000952002F051F8002002F04EF8F32002F075
:104EF0004BF8002002F048F8E62002F045F80020C8
:104F000002F042F8C52002F04BF8322002F03CF8E3
:104F1000002002F039F8442002F036F8002002F0B8
:104F200033F8652002F030F8002002F02DF87620EA
:104F300002F02AF8002002F027F8882002F024F876
:104F4000002002F021F8C62002F02AF8202002F00A
:104F50001BF8002002F018F8172002F015F80020C6
:104F600002F012F8012002F00FF8002002F00CF815
:104F7000C72002F015F8002002F006F8002002F029
:104F800003F8002002F000F8002001F0FDFFC82027
:104F900002F006F8002001F0F7FF002001F0F4FF16
:104FA000002001F0F1FF002001F0EEFFC92001F028
:104FB000F7FF002001F0E8FF002001F0E5FF0020EE
:104FC00001F0E2FF002001F0DFFF002001F0DCFF34
:104FD000002001F0D9FF002001F0D6FF002001F0F1
:104FE000D3FF002001F0D0FF002001F0CDFF002012
:104FF00001F0CAFF002001F0C7FF002001F0C4FF4C
:10500000002001F0C1FF002001F0BEFF002001F0F0
:10501000BBFFE02001F0C4FF162001F0B5FF002027
:1050200001F0B2FF1C2001F0AFFF002001F0ACFF47
:10503000212001F0A9FF002001F0A6FF362001F099
:10504000A3FF002001F0A0FF462001F09DFF0020FB
:1050500001F09AFF522001F097FF002001F094FF29
:10506000642001F091FF002001F08EFF7A2001F012
:105070008BFF002001F088FF8B2001F085FF0020CE
:1050800001F082FF992001F07FFF002001F07CFFFA
:10509000A82001F079FF002001F076FFB92001F08F
:1050A00073FF002001F070FFC42001F06DFF0020AD
:1050B00001F06AFFCA2001F067FF002001F064FFE1
:1050C000D22001F061FF002001F05EFFD92001F045
:1050D0005BFF002001F058FFE02001F055FF0020A9
:1050E00001F052FFF32001F04FFF002001F04CFFD0
:1050F000E12001F055FF162001F046FF002001F0ED
:1051000043FF1C2001F040FF002001F03DFF222062
:1051100001F03AFF002001F037FF362001F034FFA4
:10512000002001F031FF452001F02EFF002001F0AA
:105130002BFF522001F028FF002001F025FF642002
:1051400001F022FF002001F01FFF7A2001F01CFF78
:10515000002001F019FF8B2001F016FF002001F064
:1051600013FF992001F010FF002001F00DFFA8208F
:1051700001F00AFF002001F007FFB92001F004FF51
:10518000002001F001FFC42001F0FEFE002001F02C
:10519000FBFECA2001F0F8FE002001F0F5FED2204F
:1051A00001F0F2FE002001F0EFFED82001F0ECFE4D
:1051B000002001F0E9FEE02001F0E6FE002001F011
:1051C000E3FEF32001F0E0FE002001F0DDFEE2202E
:1051D00001F0E6FE052001F0D7FE002001F0D4FE2C
:1051E0000B2001F0D1FE002001F0CEFE1B2001F0CB
:1051F000CBFE002001F0C8FE342001F0C5FE0020E7
:1052000001F0C2FE442001F0BFFE002001F0BCFE10
:105210004F2001F0B9FE002001F0B6FE612001F040
:10522000B3FE002001F0B0FE792001F0ADFE0020B9
:1052300001F0AAFE882001F0A7FE002001F0A4FEE4
:10524000972001F0A1FE002001F09EFEA62001F0B3
:105250009BFE002001F098FEB72001F095FE002093
:1052600001F092FEC22001F08FFE002001F08CFEC2
:10527000C72001F089FE002001F086FED12001F058
:1052800083FE002001F080FED62001F07DFE00208C
:1052900001F07AFEDD2001F077FE002001F074FEBF
:1052A000F32001F071FE002001F06EFEE32001F01A
:1052B00077FE052001F068FE002001F065FE0A205F
:1052C00001F062FE002001F05FFE1C2001F05CFE98
:1052D000002001F059FE332001F056FE002001F0BD
:1052E00053FE442001F050FE002001F04DFE5020FE
:1052F00001F04AFE002001F047FE622001F044FE6A
:10530000002001F041FE782001F03EFE002001F077
:105310003BFE882001F038FE002001F035FE97208A
:1053200001F032FE002001F02FFEA62001F02CFE3D
:10533000002001F029FEB72001F026FE002001F038
:1053400023FEC22001F020FE002001F01DFEC72038
:1053500001F01AFE002001F017FED12001F014FE2A
:10536000002001F011FED52001F00EFE002001F01A
:105370000BFEDD2001F008FE002001F005FEF32009
:1053800001F002FE002001F0FFFDE42001F008FE24
:10539000012001F0F9FD002001F0F6FD012001F0EF
:1053A000F3FD002001F0F0FD022001F0EDFD0020F2
:1053B00001F0EAFD2A2001F0E7FD002001F0E4FD04
:1053C0003C2001F0E1FD002001F0DEFD4B2001F06A
:1053D000DBFD002001F0D8FD5D2001F0D5FD0020AF
:1053E00001F0D2FD742001F0CFFD002001F0CCFDD2
:1053F000842001F0C9FD002001F0C6FD932001F0DA
:10540000C3FD002001F0C0FDA22001F0BDFD002081
:1054100001F0BAFDB32001F0B7FD002001F0B4FDAA
:10542000BE2001F0B1FD002001F0AEFDC42001F06E
:10543000ABFD002001F0A8FDCD2001F0A5FD00206E
:1054400001F0A2FDD32001F09FFD002001F09CFDA2
:10545000DD2001F099FD002001F096FDF32001F020
:1054600093FD002001F090FDE52001F099FD002062
:1054700001F08AFD002001F087FD002001F084FD8D
:10548000002001F081FD022001F07EFD002001F0EE
:105490007BFD292001F078FD002001F075FD3C2006
:1054A00001F072FD002001F06FFD4B2001F06CFD5A
:1054B000002001F069FD5D2001F066FD002001F093
:1054C00063FD742001F060FD002001F05DFD84208B
:1054D00001F05AFD002001F057FD932001F054FD2A
:1054E000002001F051FDA22001F04EFD002001F04E
:1054F0004BFDB32001F048FD002001F045FDBE202A
:1055000001F042FD002001F03FFDC42001F03CFD10
:10551000002001F039FDCD2001F036FD002001F022
:1055200033FDD32001F030FD002001F02DFDDC2003
:1055300001F02AFD002001F027FDF32001F024FDF9
:10554000002001F021FDE62001F02AFD112001F0EC
:105550001BFD002001F018FD342001F015FD002096
:1055600001F012FD562001F00FFD002001F00CFDAE
:10557000762001F009FD002001F006FD772001F002
:1055800003FD002001F000FD662001F0FDFC00207D
:1055900001F0FAFC882001F0F7FC002001F0F4FC97
:1055A000992001F0F1FC002001F0EEFCBB2001F09D
:1055B000EBFC002001F0E8FC992001F0E5FC002064
:1055C00001F0E2FC662001F0DFFC002001F0DCFCD1
:1055D000552001F0D9FC002001F0D6FC552001F047
:1055E000D3FC002001F0D0FC452001F0CDFC0020D0
:1055F00001F0CAFC432001F0C7FC002001F0C4FC0C
:10560000442001F0C1FC002001F0BEFCE72001F0C5
:10561000C7FC322001F0B8FC002001F0B5FC552099
:1056200001F0B2FC002001F0AFFC762001F0ACFCF0
:10563000002001F0A9FC662001F0A6FC002001F08A
:10564000A3FC672001F0A0FC002001F09DFC672076
:1056500001F09AFC002001F097FC872001F094FCF7
:10566000002001F091FC992001F08EFC002001F057
:105670008BFCBB2001F088FC002001F085FC992008
:1056800001F082FC002001F07FFC772001F07CFC1F
:10569000002001F079FC442001F076FC002001F0AC
:1056A00073FC562001F070FC002001F06DFC2320FB
:1056B00001F06AFC002001F067FC332001F064FC7B
:1056C000002001F061FC452001F05EFC002001F0AB
:1056D0005BFCE82001F064FC002001F055FC002098
:1056E00001F052FC992001F04FFC002001F04CFC2D
:1056F000872001F049FC002001F046FC882001F0E1
:1057000043FC002001F040FC772001F03DFC00202C
:1057100001F03AFC662001F037FC002001F034FC77
:10572000882001F031FC002001F02EFCAA2001F0BD
:105730002BFC002001F028FCBB2001F025FC002000
:1057400001F022FC992001F01FFC002001F01CFC5C
:10575000662001F019FC002001F016FC552001F034
:1057600013FC002001F010FC552001F00DFC00207E
:1057700001F00AFC442001F007FC002001F004FCC9
:10578000442001F001FC002001F0FEFB552001F057
:10579000FBFB002001F0F8FBE92001F001FCAA204E
:1057A00001F0F2FB002001F0EFFB002001F0ECFB28
:1057B000002001F0E9FB002001F0F2FBAA2001F03B
:1057C000E3FBCF2001F0ECFB002001F0DDFB00202B
:1057D00001F0DAFB002001F0D7FB002001F0D4FB40
:1057E000002001F0D1FB002001F0CEFB002001F0F1
:1057F000CBFB002001F0C8FB002001F0C5FB00201E
:1058000001F0C2FB002001F0BFFB002001F0BCFB57
:10581000002001F0B9FB002001F0B6FB002001F0F0
:10582000B3FB002001F0B0FB002001F0ADFBF02045
:1058300001F0B6FB002001F0A7FB502001F0A4FB13
:10584000002001F0A1FB002001F09EFB002001F0F0
:105850009BFBF32001F0A4FB002001F095FBF92055
:1058600001F09EFB062001F08FFB102001F08CFB65
:10587000292001F089FB002001F086FB3A2001F08D
:105880008FFB552001F080FB112001F089FB642083
:10589000FDF704F8292001F083FB352001F080FB9F
:1058A000002001F071FB512001F07AFBFF2001F094
:1058B0006BFB532001F074FB2C2001F065FB55209D
:1058C00001F06EFB822001F05FFB2C2001F068FBF1
:1058D00001F048B8FE48808845F2105188427DD1D9
:1058E00055214FF4704001F071FBAA214FF20100E5
:1058F00001F06CFB52214FF2020001F067FB08211E
:105900004FF2030001F062FB01214FF2040001F0AD
:105910005DFB0D214FF4304001F058FB0D214BF29F
:10592000010001F053FB0D214BF2020001F04EFB90
:1059300034214FF4364001F049FB34214BF2016031
:1059400001F044FB34214BF2026001F03FFB0D21DA
:105950004FF4314001F03AFB0D214BF2011001F000
:1059600035FB0D214BF2021001F030FB34214FF4D6
:10597000374001F02BFB34214BF2017001F026FB84
:1059800034214BF2027001F021FB00214FF4324030
:1059900001F01CFB00214BF2012001F017FB00215C
:1059A0004BF2022001F012FB24214FF4384001F0A9
:1059B0000DFB24214BF6010001F008FB24214BF6DE
:1059C000020001F003FB01214FF43F4001F0FEFA19
:1059D0000F214FF4334001F0F9FA00E0FDE30F210D
:1059E0004BF2013001F0F2FA0F214BF2023001F0DC
:1059F000EDFA34214FF4394001F0E8FA34214BF646
:105A0000011001F0E3FA34214BF6021001F0DEFA46
:105A100008214FF4354001F0D9FA08214BF201502A
:105A200001F0D4FA08214BF2025001F0CFFA032121
:105A30004FF4424001F0CAFA24214FF43A4001F0F9
:105A4000C5FA24214BF6012001F0C0FA24214BF6BF
:105A5000022001F0BBFA00214FF43C4001F0B6FAFD
:105A600078214BF6014001F0B1FA00214BF60240DB
:105A700001F0ACFA00214FF43D4001F0A7FA782183
:105A80004BF6015001F0A2FA00214BF6025001F052
:105A90009DFA00214FF43E4001F098FA64214BF644
:105AA000016001F093FA00214FF4514001F08EFAA9
:105AB00033214DF2011001F089FA00214DF202105C
:105AC00001F084FA34214DF2031001F07FFA002135
:105AD0004DF2041001F07AFA3A214DF2051001F06E
